{
  "contractName": "SpaceshipBase",
  "abi": [
    {
      "inputs": [
        {
          "internalType": "string",
          "name": "name",
          "type": "string"
        },
        {
          "internalType": "string",
          "name": "symbol",
          "type": "string"
        }
      ],
      "stateMutability": "nonpayable",
      "type": "constructor"
    },
    {
      "anonymous": false,
      "inputs": [
        {
          "indexed": true,
          "internalType": "address",
          "name": "owner",
          "type": "address"
        },
        {
          "indexed": true,
          "internalType": "address",
          "name": "approved",
          "type": "address"
        },
        {
          "indexed": true,
          "internalType": "uint256",
          "name": "tokenId",
          "type": "uint256"
        }
      ],
      "name": "Approval",
      "type": "event"
    },
    {
      "anonymous": false,
      "inputs": [
        {
          "indexed": true,
          "internalType": "address",
          "name": "owner",
          "type": "address"
        },
        {
          "indexed": true,
          "internalType": "address",
          "name": "operator",
          "type": "address"
        },
        {
          "indexed": false,
          "internalType": "bool",
          "name": "approved",
          "type": "bool"
        }
      ],
      "name": "ApprovalForAll",
      "type": "event"
    },
    {
      "anonymous": false,
      "inputs": [
        {
          "indexed": false,
          "internalType": "uint256",
          "name": "shipId",
          "type": "uint256"
        },
        {
          "indexed": false,
          "internalType": "string",
          "name": "name",
          "type": "string"
        },
        {
          "indexed": false,
          "internalType": "uint256",
          "name": "dna",
          "type": "uint256"
        }
      ],
      "name": "NewSpaceship",
      "type": "event"
    },
    {
      "anonymous": false,
      "inputs": [
        {
          "indexed": true,
          "internalType": "address",
          "name": "previousOwner",
          "type": "address"
        },
        {
          "indexed": true,
          "internalType": "address",
          "name": "newOwner",
          "type": "address"
        }
      ],
      "name": "OwnershipTransferred",
      "type": "event"
    },
    {
      "anonymous": false,
      "inputs": [
        {
          "indexed": true,
          "internalType": "address",
          "name": "from",
          "type": "address"
        },
        {
          "indexed": true,
          "internalType": "address",
          "name": "to",
          "type": "address"
        },
        {
          "indexed": true,
          "internalType": "uint256",
          "name": "tokenId",
          "type": "uint256"
        }
      ],
      "name": "Transfer",
      "type": "event"
    },
    {
      "inputs": [
        {
          "internalType": "address",
          "name": "to",
          "type": "address"
        },
        {
          "internalType": "uint256",
          "name": "tokenId",
          "type": "uint256"
        }
      ],
      "name": "approve",
      "outputs": [],
      "stateMutability": "nonpayable",
      "type": "function"
    },
    {
      "inputs": [
        {
          "internalType": "address",
          "name": "owner",
          "type": "address"
        }
      ],
      "name": "balanceOf",
      "outputs": [
        {
          "internalType": "uint256",
          "name": "",
          "type": "uint256"
        }
      ],
      "stateMutability": "view",
      "type": "function",
      "constant": true
    },
    {
      "inputs": [
        {
          "internalType": "uint256",
          "name": "tokenId",
          "type": "uint256"
        }
      ],
      "name": "getApproved",
      "outputs": [
        {
          "internalType": "address",
          "name": "",
          "type": "address"
        }
      ],
      "stateMutability": "view",
      "type": "function",
      "constant": true
    },
    {
      "inputs": [
        {
          "internalType": "address",
          "name": "owner",
          "type": "address"
        },
        {
          "internalType": "address",
          "name": "operator",
          "type": "address"
        }
      ],
      "name": "isApprovedForAll",
      "outputs": [
        {
          "internalType": "bool",
          "name": "",
          "type": "bool"
        }
      ],
      "stateMutability": "view",
      "type": "function",
      "constant": true
    },
    {
      "inputs": [],
      "name": "name",
      "outputs": [
        {
          "internalType": "string",
          "name": "",
          "type": "string"
        }
      ],
      "stateMutability": "view",
      "type": "function",
      "constant": true
    },
    {
      "inputs": [],
      "name": "owner",
      "outputs": [
        {
          "internalType": "address",
          "name": "",
          "type": "address"
        }
      ],
      "stateMutability": "view",
      "type": "function",
      "constant": true
    },
    {
      "inputs": [
        {
          "internalType": "uint256",
          "name": "tokenId",
          "type": "uint256"
        }
      ],
      "name": "ownerOf",
      "outputs": [
        {
          "internalType": "address",
          "name": "",
          "type": "address"
        }
      ],
      "stateMutability": "view",
      "type": "function",
      "constant": true
    },
    {
      "inputs": [],
      "name": "renounceOwnership",
      "outputs": [],
      "stateMutability": "nonpayable",
      "type": "function"
    },
    {
      "inputs": [
        {
          "internalType": "address",
          "name": "from",
          "type": "address"
        },
        {
          "internalType": "address",
          "name": "to",
          "type": "address"
        },
        {
          "internalType": "uint256",
          "name": "tokenId",
          "type": "uint256"
        }
      ],
      "name": "safeTransferFrom",
      "outputs": [],
      "stateMutability": "nonpayable",
      "type": "function"
    },
    {
      "inputs": [
        {
          "internalType": "address",
          "name": "from",
          "type": "address"
        },
        {
          "internalType": "address",
          "name": "to",
          "type": "address"
        },
        {
          "internalType": "uint256",
          "name": "tokenId",
          "type": "uint256"
        },
        {
          "internalType": "bytes",
          "name": "_data",
          "type": "bytes"
        }
      ],
      "name": "safeTransferFrom",
      "outputs": [],
      "stateMutability": "nonpayable",
      "type": "function"
    },
    {
      "inputs": [
        {
          "internalType": "address",
          "name": "operator",
          "type": "address"
        },
        {
          "internalType": "bool",
          "name": "approved",
          "type": "bool"
        }
      ],
      "name": "setApprovalForAll",
      "outputs": [],
      "stateMutability": "nonpayable",
      "type": "function"
    },
    {
      "inputs": [
        {
          "internalType": "bytes4",
          "name": "interfaceId",
          "type": "bytes4"
        }
      ],
      "name": "supportsInterface",
      "outputs": [
        {
          "internalType": "bool",
          "name": "",
          "type": "bool"
        }
      ],
      "stateMutability": "view",
      "type": "function",
      "constant": true
    },
    {
      "inputs": [],
      "name": "symbol",
      "outputs": [
        {
          "internalType": "string",
          "name": "",
          "type": "string"
        }
      ],
      "stateMutability": "view",
      "type": "function",
      "constant": true
    },
    {
      "inputs": [
        {
          "internalType": "uint256",
          "name": "tokenId",
          "type": "uint256"
        }
      ],
      "name": "tokenURI",
      "outputs": [
        {
          "internalType": "string",
          "name": "",
          "type": "string"
        }
      ],
      "stateMutability": "view",
      "type": "function",
      "constant": true
    },
    {
      "inputs": [
        {
          "internalType": "address",
          "name": "from",
          "type": "address"
        },
        {
          "internalType": "address",
          "name": "to",
          "type": "address"
        },
        {
          "internalType": "uint256",
          "name": "tokenId",
          "type": "uint256"
        }
      ],
      "name": "transferFrom",
      "outputs": [],
      "stateMutability": "nonpayable",
      "type": "function"
    },
    {
      "inputs": [
        {
          "internalType": "address",
          "name": "newOwner",
          "type": "address"
        }
      ],
      "name": "transferOwnership",
      "outputs": [],
      "stateMutability": "nonpayable",
      "type": "function"
    },
    {
      "inputs": [
        {
          "internalType": "uint256",
          "name": "_tokenId",
          "type": "uint256"
        }
      ],
      "name": "getTokenDetails",
      "outputs": [
        {
          "components": [
            {
              "internalType": "string",
              "name": "name",
              "type": "string"
            },
            {
              "internalType": "uint256",
              "name": "dna",
              "type": "uint256"
            },
            {
              "internalType": "uint32",
              "name": "level",
              "type": "uint32"
            },
            {
              "internalType": "uint32",
              "name": "readyTime",
              "type": "uint32"
            },
            {
              "internalType": "uint16",
              "name": "winCount",
              "type": "uint16"
            },
            {
              "internalType": "uint16",
              "name": "lossCount",
              "type": "uint16"
            }
          ],
          "internalType": "struct SpaceshipBase.Spaceship",
          "name": "",
          "type": "tuple"
        }
      ],
      "stateMutability": "view",
      "type": "function",
      "constant": true
    },
    {
      "inputs": [
        {
          "internalType": "address",
          "name": "user",
          "type": "address"
        }
      ],
      "name": "getAllTokensForUser",
      "outputs": [
        {
          "internalType": "uint256[]",
          "name": "",
          "type": "uint256[]"
        }
      ],
      "stateMutability": "view",
      "type": "function",
      "constant": true
    },
    {
      "inputs": [
        {
          "internalType": "string",
          "name": "_name",
          "type": "string"
        },
        {
          "internalType": "uint256",
          "name": "_dna",
          "type": "uint256"
        }
      ],
      "name": "mint",
      "outputs": [],
      "stateMutability": "nonpayable",
      "type": "function"
    },
    {
      "inputs": [
        {
          "internalType": "string",
          "name": "_name",
          "type": "string"
        }
      ],
      "name": "createRandomSpaceship",
      "outputs": [],
      "stateMutability": "nonpayable",
      "type": "function"
    }
  ],
  "bytecode": "0x60806040526010600855600854600a6200001a9190620003dd565b60095562015180600a556000600b553480156200003657600080fd5b5060405162003a6e38038062003a6e83398181016040528101906200005c9190620002a8565b81816200007e62000072620000ba60201b60201c565b620000c260201b60201c565b81600190805190602001906200009692919062000186565b508060029080519060200190620000af92919062000186565b50505050506200062a565b600033905090565b60008060009054906101000a900473ffffffffffffffffffffffffffffffffffffffff169050816000806101000a81548173ffffffffffffffffffffffffffffffffffffffff021916908373ffffffffffffffffffffffffffffffffffffffff1602179055508173ffffffffffffffffffffffffffffffffffffffff168173ffffffffffffffffffffffffffffffffffffffff167f8be0079c531659141344cd1fd0a4f28419497f9722a3daafe3b4186f6b6457e060405160405180910390a35050565b82805462000194906200055a565b90600052602060002090601f016020900481019282620001b8576000855562000204565b82601f10620001d357805160ff191683800117855562000204565b8280016001018555821562000204579182015b8281111562000203578251825591602001919060010190620001e6565b5b50905062000213919062000217565b5090565b5b808211156200023257600081600090555060010162000218565b5090565b60006200024d62000247846200034f565b6200031b565b9050828152602081018484840111156200026657600080fd5b6200027384828562000524565b509392505050565b600082601f8301126200028d57600080fd5b81516200029f84826020860162000236565b91505092915050565b60008060408385031215620002bc57600080fd5b600083015167ffffffffffffffff811115620002d757600080fd5b620002e5858286016200027b565b925050602083015167ffffffffffffffff8111156200030357600080fd5b62000311858286016200027b565b9150509250929050565b6000604051905081810181811067ffffffffffffffff82111715620003455762000344620005ee565b5b8060405250919050565b600067ffffffffffffffff8211156200036d576200036c620005ee565b5b601f19601f8301169050602081019050919050565b6000808291508390505b6001851115620003d457808604811115620003ac57620003ab62000590565b5b6001851615620003bc5780820291505b8081029050620003cc856200061d565b94506200038c565b94509492505050565b6000620003ea826200051a565b9150620003f7836200051a565b9250620004267fffffffffffffffffffffffffffffffffffffffffffffffffffffffffffffffff84846200042e565b905092915050565b60008262000440576001905062000513565b8162000450576000905062000513565b81600181146200046957600281146200047457620004aa565b600191505062000513565b60ff84111562000489576200048862000590565b5b8360020a915084821115620004a357620004a262000590565b5b5062000513565b5060208310610133831016604e8410600b8410161715620004e45782820a905083811115620004de57620004dd62000590565b5b62000513565b620004f3848484600162000382565b925090508184048111156200050d576200050c62000590565b5b81810290505b9392505050565b6000819050919050565b60005b838110156200054457808201518184015260208101905062000527565b8381111562000554576000848401525b50505050565b600060028204905060018216806200057357607f821691505b602082108114156200058a5762000589620005bf565b5b50919050565b7f4e487b7100000000000000000000000000000000000000000000000000000000600052601160045260246000fd5b7f4e487b7100000000000000000000000000000000000000000000000000000000600052602260045260246000fd5b7f4e487b7100000000000000000000000000000000000000000000000000000000600052604160045260246000fd5b60008160011c9050919050565b613434806200063a6000396000f3fe608060405234801561001057600080fd5b506004361061012c5760003560e01c8063715018a6116100ad578063b88d4fde11610071578063b88d4fde1461032d578063c1e0372814610349578063c87b56dd14610379578063e985e9c5146103a9578063f2fde38b146103d95761012c565b8063715018a61461029b57806382de8fe9146102a55780638da5cb5b146102d557806395d89b41146102f3578063a22cb465146103115761012c565b806323b872dd116100f457806323b872dd146101e757806342842e0e146102035780635718dfc51461021f5780636352211e1461023b57806370a082311461026b5761012c565b806301ffc9a714610131578063056b01ce1461016157806306fdde031461017d578063081812fc1461019b578063095ea7b3146101cb575b600080fd5b61014b60048036038101906101469190612331565b6103f5565b6040516101589190612d02565b60405180910390f35b61017b600480360381019061017691906123c4565b6104d7565b005b61018561069b565b6040516101929190612d1d565b60405180910390f35b6101b560048036038101906101b09190612418565b61072d565b6040516101c29190612c79565b60405180910390f35b6101e560048036038101906101e091906122f5565b6107b2565b005b61020160048036038101906101fc91906121ef565b6108ca565b005b61021d600480360381019061021891906121ef565b61092a565b005b61023960048036038101906102349190612383565b61094a565b005b61025560048036038101906102509190612418565b610994565b6040516102629190612c79565b60405180910390f35b6102856004803603810190610280919061218a565b610a46565b6040516102929190612f61565b60405180910390f35b6102a3610afe565b005b6102bf60048036038101906102ba919061218a565b610b86565b6040516102cc9190612ce0565b60405180910390f35b6102dd610d4e565b6040516102ea9190612c79565b60405180910390f35b6102fb610d77565b6040516103089190612d1d565b60405180910390f35b61032b600480360381019061032691906122b9565b610e09565b005b6103476004803603810190610342919061223e565b610f8a565b005b610363600480360381019061035e9190612418565b610fec565b6040516103709190612f3f565b60405180910390f35b610393600480360381019061038e9190612418565b611141565b6040516103a09190612d1d565b60405180910390f35b6103c360048036038101906103be91906121b3565b6111e8565b6040516103d09190612d02565b60405180910390f35b6103f360048036038101906103ee919061218a565b61127c565b005b60007f80ac58cd000000000000000000000000000000000000000000000000000000007bffffffffffffffffffffffffffffffffffffffffffffffffffffffff1916827bffffffffffffffffffffffffffffffffffffffffffffffffffffffff191614806104c057507f5b5e139f000000000000000000000000000000000000000000000000000000007bffffffffffffffffffffffffffffffffffffffffffffffffffffffff1916827bffffffffffffffffffffffffffffffffffffffffffffffffffffffff1916145b806104d057506104cf82611374565b5b9050919050565b6104df6113de565b73ffffffffffffffffffffffffffffffffffffffff166104fd610d4e565b73ffffffffffffffffffffffffffffffffffffffff1614610553576040517f08c379a000000000000000000000000000000000000000000000000000000000815260040161054a90612e9f565b60405180910390fd5b60006040518060c00160405280848152602001838152602001600063ffffffff168152602001600063ffffffff168152602001600061ffff168152602001600061ffff16815250905080600c6000600b54815260200190815260200160002060008201518160000190805190602001906105ce929190611f64565b506020820151816001015560408201518160020160006101000a81548163ffffffff021916908363ffffffff16021790555060608201518160020160046101000a81548163ffffffff021916908363ffffffff16021790555060808201518160020160086101000a81548161ffff021916908361ffff16021790555060a082015181600201600a6101000a81548161ffff021916908361ffff16021790555090505061067c33600b546113e6565b6001600b600082825461068f919061309a565b92505081905550505050565b6060600180546106aa90613229565b80601f01602080910402602001604051908101604052809291908181526020018280546106d690613229565b80156107235780601f106106f857610100808354040283529160200191610723565b820191906000526020600020905b81548152906001019060200180831161070657829003601f168201915b5050505050905090565b600061073882611404565b610777576040517f08c379a000000000000000000000000000000000000000000000000000000000815260040161076e90612e7f565b60405180910390fd5b6005600083815260200190815260200160002060009054906101000a900473ffffffffffffffffffffffffffffffffffffffff169050919050565b60006107bd82610994565b90508073ffffffffffffffffffffffffffffffffffffffff168373ffffffffffffffffffffffffffffffffffffffff16141561082e576040517f08c379a000000000000000000000000000000000000000000000000000000000815260040161082590612eff565b60405180910390fd5b8073ffffffffffffffffffffffffffffffffffffffff1661084d6113de565b73ffffffffffffffffffffffffffffffffffffffff16148061087c575061087b816108766113de565b6111e8565b5b6108bb576040517f08c379a00000000000000000000000000000000000000000000000000000000081526004016108b290612dff565b60405180910390fd5b6108c58383611470565b505050565b6108db6108d56113de565b82611529565b61091a576040517f08c379a000000000000000000000000000000000000000000000000000000000815260040161091190612f1f565b60405180910390fd5b610925838383611607565b505050565b61094583838360405180602001604052806000815250610f8a565b505050565b600061095533610a46565b1461095f57600080fd5b600061096a82611863565b905060648161097991906132a4565b816109849190613121565b905061099082826104d7565b5050565b6000806003600084815260200190815260200160002060009054906101000a900473ffffffffffffffffffffffffffffffffffffffff169050600073ffffffffffffffffffffffffffffffffffffffff168173ffffffffffffffffffffffffffffffffffffffff161415610a3d576040517f08c379a0000000000000000000000000000000000000000000000000000000008152600401610a3490612e3f565b60405180910390fd5b80915050919050565b60008073ffffffffffffffffffffffffffffffffffffffff168273ffffffffffffffffffffffffffffffffffffffff161415610ab7576040517f08c379a0000000000000000000000000000000000000000000000000000000008152600401610aae90612e1f565b60405180910390fd5b600460008373ffffffffffffffffffffffffffffffffffffffff1673ffffffffffffffffffffffffffffffffffffffff168152602001908152602001600020549050919050565b610b066113de565b73ffffffffffffffffffffffffffffffffffffffff16610b24610d4e565b73ffffffffffffffffffffffffffffffffffffffff1614610b7a576040517f08c379a0000000000000000000000000000000000000000000000000000000008152600401610b7190612e9f565b60405180910390fd5b610b8460006118a8565b565b60606000610b9383610a46565b90506000811415610c1657600067ffffffffffffffff811115610bdf577f4e487b7100000000000000000000000000000000000000000000000000000000600052604160045260246000fd5b604051908082528060200260200182016040528015610c0d5781602001602082028036833780820191505090505b50915050610d49565b60008167ffffffffffffffff811115610c58577f4e487b7100000000000000000000000000000000000000000000000000000000600052604160045260246000fd5b604051908082528060200260200182016040528015610c865781602001602082028036833780820191505090505b5090506000600b5490506000805b82811015610d40578673ffffffffffffffffffffffffffffffffffffffff16610cbc82610994565b73ffffffffffffffffffffffffffffffffffffffff161415610d2d5780848381518110610d12577f4e487b7100000000000000000000000000000000000000000000000000000000600052603260045260246000fd5b6020026020010181815250508180610d299061325b565b9250505b8080610d389061325b565b915050610c94565b50829450505050505b919050565b60008060009054906101000a900473ffffffffffffffffffffffffffffffffffffffff16905090565b606060028054610d8690613229565b80601f0160208091040260200160405190810160405280929190818152602001828054610db290613229565b8015610dff5780601f10610dd457610100808354040283529160200191610dff565b820191906000526020600020905b815481529060010190602001808311610de257829003601f168201915b5050505050905090565b610e116113de565b73ffffffffffffffffffffffffffffffffffffffff168273ffffffffffffffffffffffffffffffffffffffff161415610e7f576040517f08c379a0000000000000000000000000000000000000000000000000000000008152600401610e7690612dbf565b60405180910390fd5b8060066000610e8c6113de565b73ffffffffffffffffffffffffffffffffffffffff1673ffffffffffffffffffffffffffffffffffffffff16815260200190815260200160002060008473ffffffffffffffffffffffffffffffffffffffff1673ffffffffffffffffffffffffffffffffffffffff16815260200190815260200160002060006101000a81548160ff0219169083151502179055508173ffffffffffffffffffffffffffffffffffffffff16610f396113de565b73ffffffffffffffffffffffffffffffffffffffff167f17307eab39ab6107e8899845ad3d59bd9653f200f220920489ca2b5937696c3183604051610f7e9190612d02565b60405180910390a35050565b610f9b610f956113de565b83611529565b610fda576040517f08c379a0000000000000000000000000000000000000000000000000000000008152600401610fd190612f1f565b60405180910390fd5b610fe68484848461196c565b50505050565b610ff4611fea565b600c60008381526020019081526020016000206040518060c001604052908160008201805461102290613229565b80601f016020809104026020016040519081016040528092919081815260200182805461104e90613229565b801561109b5780601f106110705761010080835404028352916020019161109b565b820191906000526020600020905b81548152906001019060200180831161107e57829003601f168201915b50505050508152602001600182015481526020016002820160009054906101000a900463ffffffff1663ffffffff1663ffffffff1681526020016002820160049054906101000a900463ffffffff1663ffffffff1663ffffffff1681526020016002820160089054906101000a900461ffff1661ffff1661ffff16815260200160028201600a9054906101000a900461ffff1661ffff1661ffff16815250509050919050565b606061114c82611404565b61118b576040517f08c379a000000000000000000000000000000000000000000000000000000000815260040161118290612edf565b60405180910390fd5b60006111956119c8565b905060008151116111b557604051806020016040528060008152506111e0565b806111bf846119df565b6040516020016111d0929190612c55565b6040516020818303038152906040525b915050919050565b6000600660008473ffffffffffffffffffffffffffffffffffffffff1673ffffffffffffffffffffffffffffffffffffffff16815260200190815260200160002060008373ffffffffffffffffffffffffffffffffffffffff1673ffffffffffffffffffffffffffffffffffffffff16815260200190815260200160002060009054906101000a900460ff16905092915050565b6112846113de565b73ffffffffffffffffffffffffffffffffffffffff166112a2610d4e565b73ffffffffffffffffffffffffffffffffffffffff16146112f8576040517f08c379a00000000000000000000000000000000000000000000000000000000081526004016112ef90612e9f565b60405180910390fd5b600073ffffffffffffffffffffffffffffffffffffffff168173ffffffffffffffffffffffffffffffffffffffff161415611368576040517f08c379a000000000000000000000000000000000000000000000000000000000815260040161135f90612d5f565b60405180910390fd5b611371816118a8565b50565b60007f01ffc9a7000000000000000000000000000000000000000000000000000000007bffffffffffffffffffffffffffffffffffffffffffffffffffffffff1916827bffffffffffffffffffffffffffffffffffffffffffffffffffffffff1916149050919050565b600033905090565b611400828260405180602001604052806000815250611b8c565b5050565b60008073ffffffffffffffffffffffffffffffffffffffff166003600084815260200190815260200160002060009054906101000a900473ffffffffffffffffffffffffffffffffffffffff1673ffffffffffffffffffffffffffffffffffffffff1614159050919050565b816005600083815260200190815260200160002060006101000a81548173ffffffffffffffffffffffffffffffffffffffff021916908373ffffffffffffffffffffffffffffffffffffffff160217905550808273ffffffffffffffffffffffffffffffffffffffff166114e383610994565b73ffffffffffffffffffffffffffffffffffffffff167f8c5be1e5ebec7d5bd14f71427d1e84f3dd0314c0f7b2291e5b200ac8c7c3b92560405160405180910390a45050565b600061153482611404565b611573576040517f08c379a000000000000000000000000000000000000000000000000000000000815260040161156a90612ddf565b60405180910390fd5b600061157e83610994565b90508073ffffffffffffffffffffffffffffffffffffffff168473ffffffffffffffffffffffffffffffffffffffff1614806115ed57508373ffffffffffffffffffffffffffffffffffffffff166115d58461072d565b73ffffffffffffffffffffffffffffffffffffffff16145b806115fe57506115fd81856111e8565b5b91505092915050565b8273ffffffffffffffffffffffffffffffffffffffff1661162782610994565b73ffffffffffffffffffffffffffffffffffffffff161461167d576040517f08c379a000000000000000000000000000000000000000000000000000000000815260040161167490612ebf565b60405180910390fd5b600073ffffffffffffffffffffffffffffffffffffffff168273ffffffffffffffffffffffffffffffffffffffff1614156116ed576040517f08c379a00000000000000000000000000000000000000000000000000000000081526004016116e490612d9f565b60405180910390fd5b6116f8838383611be7565b611703600082611470565b6001600460008573ffffffffffffffffffffffffffffffffffffffff1673ffffffffffffffffffffffffffffffffffffffff16815260200190815260200160002060008282546117539190613121565b925050819055506001600460008473ffffffffffffffffffffffffffffffffffffffff1673ffffffffffffffffffffffffffffffffffffffff16815260200190815260200160002060008282546117aa919061309a565b92505081905550816003600083815260200190815260200160002060006101000a81548173ffffffffffffffffffffffffffffffffffffffff021916908373ffffffffffffffffffffffffffffffffffffffff160217905550808273ffffffffffffffffffffffffffffffffffffffff168473ffffffffffffffffffffffffffffffffffffffff167fddf252ad1be2c89b69c2b068fc378daa952ba7f163c4a11628f55a4df523b3ef60405160405180910390a4505050565b600080826040516020016118779190612c3e565b6040516020818303038152906040528051906020012060001c9050600954816118a091906132a4565b915050919050565b60008060009054906101000a900473ffffffffffffffffffffffffffffffffffffffff169050816000806101000a81548173ffffffffffffffffffffffffffffffffffffffff021916908373ffffffffffffffffffffffffffffffffffffffff1602179055508173ffffffffffffffffffffffffffffffffffffffff168173ffffffffffffffffffffffffffffffffffffffff167f8be0079c531659141344cd1fd0a4f28419497f9722a3daafe3b4186f6b6457e060405160405180910390a35050565b611977848484611607565b61198384848484611bec565b6119c2576040517f08c379a00000000000000000000000000000000000000000000000000000000081526004016119b990612d3f565b60405180910390fd5b50505050565b606060405180602001604052806000815250905090565b60606000821415611a27576040518060400160405280600181526020017f30000000000000000000000000000000000000000000000000000000000000008152509050611b87565b600082905060005b60008214611a59578080611a429061325b565b915050600a82611a5291906130f0565b9150611a2f565b60008167ffffffffffffffff811115611a9b577f4e487b7100000000000000000000000000000000000000000000000000000000600052604160045260246000fd5b6040519080825280601f01601f191660200182016040528015611acd5781602001600182028036833780820191505090505b5090505b60008514611b8057600182611ae69190613121565b9150600a85611af591906132a4565b6030611b01919061309a565b60f81b818381518110611b3d577f4e487b7100000000000000000000000000000000000000000000000000000000600052603260045260246000fd5b60200101907effffffffffffffffffffffffffffffffffffffffffffffffffffffffffffff1916908160001a905350600a85611b7991906130f0565b9450611ad1565b8093505050505b919050565b611b968383611d83565b611ba36000848484611bec565b611be2576040517f08c379a0000000000000000000000000000000000000000000000000000000008152600401611bd990612d3f565b60405180910390fd5b505050565b505050565b6000611c0d8473ffffffffffffffffffffffffffffffffffffffff16611f51565b15611d76578373ffffffffffffffffffffffffffffffffffffffff1663150b7a02611c366113de565b8786866040518563ffffffff1660e01b8152600401611c589493929190612c94565b602060405180830381600087803b158015611c7257600080fd5b505af1925050508015611ca357506040513d601f19601f82011682018060405250810190611ca0919061235a565b60015b611d26573d8060008114611cd3576040519150601f19603f3d011682016040523d82523d6000602084013e611cd8565b606091505b50600081511415611d1e576040517f08c379a0000000000000000000000000000000000000000000000000000000008152600401611d1590612d3f565b60405180910390fd5b805181602001fd5b63150b7a0260e01b7bffffffffffffffffffffffffffffffffffffffffffffffffffffffff1916817bffffffffffffffffffffffffffffffffffffffffffffffffffffffff191614915050611d7b565b600190505b949350505050565b600073ffffffffffffffffffffffffffffffffffffffff168273ffffffffffffffffffffffffffffffffffffffff161415611df3576040517f08c379a0000000000000000000000000000000000000000000000000000000008152600401611dea90612e5f565b60405180910390fd5b611dfc81611404565b15611e3c576040517f08c379a0000000000000000000000000000000000000000000000000000000008152600401611e3390612d7f565b60405180910390fd5b611e4860008383611be7565b6001600460008473ffffffffffffffffffffffffffffffffffffffff1673ffffffffffffffffffffffffffffffffffffffff1681526020019081526020016000206000828254611e98919061309a565b92505081905550816003600083815260200190815260200160002060006101000a81548173ffffffffffffffffffffffffffffffffffffffff021916908373ffffffffffffffffffffffffffffffffffffffff160217905550808273ffffffffffffffffffffffffffffffffffffffff16600073ffffffffffffffffffffffffffffffffffffffff167fddf252ad1be2c89b69c2b068fc378daa952ba7f163c4a11628f55a4df523b3ef60405160405180910390a45050565b600080823b905060008111915050919050565b828054611f7090613229565b90600052602060002090601f016020900481019282611f925760008555611fd9565b82601f10611fab57805160ff1916838001178555611fd9565b82800160010185558215611fd9579182015b82811115611fd8578251825591602001919060010190611fbd565b5b509050611fe69190612034565b5090565b6040518060c001604052806060815260200160008152602001600063ffffffff168152602001600063ffffffff168152602001600061ffff168152602001600061ffff1681525090565b5b8082111561204d576000816000905550600101612035565b5090565b600061206461205f84612fad565b612f7c565b90508281526020810184848401111561207c57600080fd5b6120878482856131e7565b509392505050565b60006120a261209d84612fdd565b612f7c565b9050828152602081018484840111156120ba57600080fd5b6120c58482856131e7565b509392505050565b6000813590506120dc816133a2565b92915050565b6000813590506120f1816133b9565b92915050565b600081359050612106816133d0565b92915050565b60008151905061211b816133d0565b92915050565b600082601f83011261213257600080fd5b8135612142848260208601612051565b91505092915050565b600082601f83011261215c57600080fd5b813561216c84826020860161208f565b91505092915050565b600081359050612184816133e7565b92915050565b60006020828403121561219c57600080fd5b60006121aa848285016120cd565b91505092915050565b600080604083850312156121c657600080fd5b60006121d4858286016120cd565b92505060206121e5858286016120cd565b9150509250929050565b60008060006060848603121561220457600080fd5b6000612212868287016120cd565b9350506020612223868287016120cd565b925050604061223486828701612175565b9150509250925092565b6000806000806080858703121561225457600080fd5b6000612262878288016120cd565b9450506020612273878288016120cd565b935050604061228487828801612175565b925050606085013567ffffffffffffffff8111156122a157600080fd5b6122ad87828801612121565b91505092959194509250565b600080604083850312156122cc57600080fd5b60006122da858286016120cd565b92505060206122eb858286016120e2565b9150509250929050565b6000806040838503121561230857600080fd5b6000612316858286016120cd565b925050602061232785828601612175565b9150509250929050565b60006020828403121561234357600080fd5b6000612351848285016120f7565b91505092915050565b60006020828403121561236c57600080fd5b600061237a8482850161210c565b91505092915050565b60006020828403121561239557600080fd5b600082013567ffffffffffffffff8111156123af57600080fd5b6123bb8482850161214b565b91505092915050565b600080604083850312156123d757600080fd5b600083013567ffffffffffffffff8111156123f157600080fd5b6123fd8582860161214b565b925050602061240e85828601612175565b9150509250929050565b60006020828403121561242a57600080fd5b600061243884828501612175565b91505092915050565b600061244d8383612c11565b60208301905092915050565b61246281613155565b82525050565b60006124738261301d565b61247d818561304b565b93506124888361300d565b8060005b838110156124b95781516124a08882612441565b97506124ab8361303e565b92505060018101905061248c565b5085935050505092915050565b6124cf81613167565b82525050565b60006124e082613028565b6124ea818561305c565b93506124fa8185602086016131f6565b61250381613391565b840191505092915050565b600061251982613033565b612523818561306d565b93506125338185602086016131f6565b61253c81613391565b840191505092915050565b600061255282613033565b61255c818561307e565b935061256c8185602086016131f6565b61257581613391565b840191505092915050565b600061258b82613033565b612595818561308f565b93506125a58185602086016131f6565b80840191505092915050565b60006125be60328361307e565b91507f4552433732313a207472616e7366657220746f206e6f6e20455243373231526560008301527f63656976657220696d706c656d656e74657200000000000000000000000000006020830152604082019050919050565b600061262460268361307e565b91507f4f776e61626c653a206e6577206f776e657220697320746865207a65726f206160008301527f64647265737300000000000000000000000000000000000000000000000000006020830152604082019050919050565b600061268a601c8361307e565b91507f4552433732313a20746f6b656e20616c7265616479206d696e746564000000006000830152602082019050919050565b60006126ca60248361307e565b91507f4552433732313a207472616e7366657220746f20746865207a65726f2061646460008301527f72657373000000000000000000000000000000000000000000000000000000006020830152604082019050919050565b600061273060198361307e565b91507f4552433732313a20617070726f766520746f2063616c6c6572000000000000006000830152602082019050919050565b6000612770602c8361307e565b91507f4552433732313a206f70657261746f7220717565727920666f72206e6f6e657860008301527f697374656e7420746f6b656e00000000000000000000000000000000000000006020830152604082019050919050565b60006127d660388361307e565b91507f4552433732313a20617070726f76652063616c6c6572206973206e6f74206f7760008301527f6e6572206e6f7220617070726f76656420666f7220616c6c00000000000000006020830152604082019050919050565b600061283c602a8361307e565b91507f4552433732313a2062616c616e636520717565727920666f7220746865207a6560008301527f726f2061646472657373000000000000000000000000000000000000000000006020830152604082019050919050565b60006128a260298361307e565b91507f4552433732313a206f776e657220717565727920666f72206e6f6e657869737460008301527f656e7420746f6b656e00000000000000000000000000000000000000000000006020830152604082019050919050565b600061290860208361307e565b91507f4552433732313a206d696e7420746f20746865207a65726f20616464726573736000830152602082019050919050565b6000612948602c8361307e565b91507f4552433732313a20617070726f76656420717565727920666f72206e6f6e657860008301527f697374656e7420746f6b656e00000000000000000000000000000000000000006020830152604082019050919050565b60006129ae60208361307e565b91507f4f776e61626c653a2063616c6c6572206973206e6f7420746865206f776e65726000830152602082019050919050565b60006129ee60298361307e565b91507f4552433732313a207472616e73666572206f6620746f6b656e2074686174206960008301527f73206e6f74206f776e00000000000000000000000000000000000000000000006020830152604082019050919050565b6000612a54602f8361307e565b91507f4552433732314d657461646174613a2055524920717565727920666f72206e6f60008301527f6e6578697374656e7420746f6b656e00000000000000000000000000000000006020830152604082019050919050565b6000612aba60218361307e565b91507f4552433732313a20617070726f76616c20746f2063757272656e74206f776e6560008301527f72000000000000000000000000000000000000000000000000000000000000006020830152604082019050919050565b6000612b2060318361307e565b91507f4552433732313a207472616e736665722063616c6c6572206973206e6f74206f60008301527f776e6572206e6f7220617070726f7665640000000000000000000000000000006020830152604082019050919050565b600060c0830160008301518482036000860152612b96828261250e565b9150506020830151612bab6020860182612c11565b506040830151612bbe6040860182612c2f565b506060830151612bd16060860182612c2f565b506080830151612be46080860182612c02565b5060a0830151612bf760a0860182612c02565b508091505092915050565b612c0b8161319f565b82525050565b612c1a816131cd565b82525050565b612c29816131cd565b82525050565b612c38816131d7565b82525050565b6000612c4a8284612580565b915081905092915050565b6000612c618285612580565b9150612c6d8284612580565b91508190509392505050565b6000602082019050612c8e6000830184612459565b92915050565b6000608082019050612ca96000830187612459565b612cb66020830186612459565b612cc36040830185612c20565b8181036060830152612cd581846124d5565b905095945050505050565b60006020820190508181036000830152612cfa8184612468565b905092915050565b6000602082019050612d1760008301846124c6565b92915050565b60006020820190508181036000830152612d378184612547565b905092915050565b60006020820190508181036000830152612d58816125b1565b9050919050565b60006020820190508181036000830152612d7881612617565b9050919050565b60006020820190508181036000830152612d988161267d565b9050919050565b60006020820190508181036000830152612db8816126bd565b9050919050565b60006020820190508181036000830152612dd881612723565b9050919050565b60006020820190508181036000830152612df881612763565b9050919050565b60006020820190508181036000830152612e18816127c9565b9050919050565b60006020820190508181036000830152612e388161282f565b9050919050565b60006020820190508181036000830152612e5881612895565b9050919050565b60006020820190508181036000830152612e78816128fb565b9050919050565b60006020820190508181036000830152612e988161293b565b9050919050565b60006020820190508181036000830152612eb8816129a1565b9050919050565b60006020820190508181036000830152612ed8816129e1565b9050919050565b60006020820190508181036000830152612ef881612a47565b9050919050565b60006020820190508181036000830152612f1881612aad565b9050919050565b60006020820190508181036000830152612f3881612b13565b9050919050565b60006020820190508181036000830152612f598184612b79565b905092915050565b6000602082019050612f766000830184612c20565b92915050565b6000604051905081810181811067ffffffffffffffff82111715612fa357612fa2613362565b5b8060405250919050565b600067ffffffffffffffff821115612fc857612fc7613362565b5b601f19601f8301169050602081019050919050565b600067ffffffffffffffff821115612ff857612ff7613362565b5b601f19601f8301169050602081019050919050565b6000819050602082019050919050565b600081519050919050565b600081519050919050565b600081519050919050565b6000602082019050919050565b600082825260208201905092915050565b600082825260208201905092915050565b600082825260208201905092915050565b600082825260208201905092915050565b600081905092915050565b60006130a5826131cd565b91506130b0836131cd565b9250827fffffffffffffffffffffffffffffffffffffffffffffffffffffffffffffffff038211156130e5576130e46132d5565b5b828201905092915050565b60006130fb826131cd565b9150613106836131cd565b92508261311657613115613304565b5b828204905092915050565b600061312c826131cd565b9150613137836131cd565b92508282101561314a576131496132d5565b5b828203905092915050565b6000613160826131ad565b9050919050565b60008115159050919050565b60007fffffffff0000000000000000000000000000000000000000000000000000000082169050919050565b600061ffff82169050919050565b600073ffffffffffffffffffffffffffffffffffffffff82169050919050565b6000819050919050565b600063ffffffff82169050919050565b82818337600083830152505050565b60005b838110156132145780820151818401526020810190506131f9565b83811115613223576000848401525b50505050565b6000600282049050600182168061324157607f821691505b6020821081141561325557613254613333565b5b50919050565b6000613266826131cd565b91507fffffffffffffffffffffffffffffffffffffffffffffffffffffffffffffffff821415613299576132986132d5565b5b600182019050919050565b60006132af826131cd565b91506132ba836131cd565b9250826132ca576132c9613304565b5b828206905092915050565b7f4e487b7100000000000000000000000000000000000000000000000000000000600052601160045260246000fd5b7f4e487b7100000000000000000000000000000000000000000000000000000000600052601260045260246000fd5b7f4e487b7100000000000000000000000000000000000000000000000000000000600052602260045260246000fd5b7f4e487b7100000000000000000000000000000000000000000000000000000000600052604160045260246000fd5b6000601f19601f8301169050919050565b6133ab81613155565b81146133b657600080fd5b50565b6133c281613167565b81146133cd57600080fd5b50565b6133d981613173565b81146133e457600080fd5b50565b6133f0816131cd565b81146133fb57600080fd5b5056fea264697066735822122041e38b2ef1392729198d543f6cc9c7fbb5c8515d78fc7ee88223a3008dd90b6864736f6c63430008000033",
  "immutableReferences": {},
  "source": "// SPDX-License-Identifier: MIT\npragma solidity ^0.8.0;\n\nimport \"@openzeppelin/contracts/access/Ownable.sol\";\nimport \"@openzeppelin/contracts/token/ERC721/ERC721.sol\";\n\ncontract SpaceshipBase is Ownable, ERC721 {\n\n    constructor(string memory name, string memory symbol) ERC721(name, symbol) {\n    \n  }\n\n  mapping (uint256 => address) internal contractOwner;\n  \n  uint dnaDigits = 16;\n  uint dnaModulus = 10 ** dnaDigits;\n  uint cooldownTime = 1 days; // the cooldown for each spaceship to perform any action\n\n  event NewSpaceship(uint shipId, string name, uint dna);\n\n  struct Spaceship {\n    string name;\n    uint dna;\n    uint32 level;\n    uint32 readyTime;\n    uint16 winCount;\n    uint16 lossCount;\n    // uint[] weapons;\n  }\n\n  uint currentId = 0;\n  mapping (uint256 => Spaceship) spaceshipDetails;\n\n  function getTokenDetails(uint256 _tokenId) public view returns(Spaceship memory){\n    return spaceshipDetails[_tokenId];\n  }\n\n  function getAllTokensForUser(address user) public view returns (uint256[] memory){\n    uint tokenCount = balanceOf(user);\n    if(tokenCount == 0){\n      return new uint256[](0);\n    }else{\n      uint[] memory UserSpaceships = new uint256[](tokenCount);\n      uint256 totalSpaceships = currentId;\n      uint256 idx = 0;\n      for(uint256 i=0; i<totalSpaceships; i++) {\n        if(ownerOf(i) == user){\n          UserSpaceships[idx] = i;\n          idx++;\n        } \n      }\n      return UserSpaceships;\n    }\n  }\n\n  function mint(string memory _name, uint _dna) public onlyOwner{\n    Spaceship memory newSpaceship = Spaceship(_name, _dna,\n                                               0, 0, 0, 0);\n    spaceshipDetails[currentId] = newSpaceship;\n    _safeMint(msg.sender, currentId);\n    currentId += 1;\n  }\n\n  function _generateRandomDna(string memory _str) private view returns (uint) {\n    uint rand = uint(keccak256(abi.encodePacked(_str)));\n    return rand % dnaModulus;\n  }\n\n  function createRandomSpaceship(string memory _name) public {\n    require(balanceOf(msg.sender) == 0);\n    uint randDna = _generateRandomDna(_name);\n    randDna = randDna - randDna % 100;\n    mint(_name, randDna);\n  }\n   \n}\n",
  "sourcePath": "/home/rage/Documents/cryptoSpaceships/contracts/SpaceshipBase.sol",
  "compiler": {
    "name": "solc",
    "version": "0.8.0+commit.c7dfd78e.Emscripten.clang"
  },
  "schemaVersion": "3.4.3",
  "updatedAt": "2021-09-20T11:55:07.352Z",
  "networkType": "ethereum",
  "devdoc": {
    "kind": "dev",
    "methods": {
      "approve(address,uint256)": {
        "details": "See {IERC721-approve}."
      },
      "balanceOf(address)": {
        "details": "See {IERC721-balanceOf}."
      },
      "getApproved(uint256)": {
        "details": "See {IERC721-getApproved}."
      },
      "isApprovedForAll(address,address)": {
        "details": "See {IERC721-isApprovedForAll}."
      },
      "name()": {
        "details": "See {IERC721Metadata-name}."
      },
      "owner()": {
        "details": "Returns the address of the current owner."
      },
      "ownerOf(uint256)": {
        "details": "See {IERC721-ownerOf}."
      },
      "renounceOwnership()": {
        "details": "Leaves the contract without owner. It will not be possible to call `onlyOwner` functions anymore. Can only be called by the current owner. NOTE: Renouncing ownership will leave the contract without an owner, thereby removing any functionality that is only available to the owner."
      },
      "safeTransferFrom(address,address,uint256)": {
        "details": "See {IERC721-safeTransferFrom}."
      },
      "safeTransferFrom(address,address,uint256,bytes)": {
        "details": "See {IERC721-safeTransferFrom}."
      },
      "setApprovalForAll(address,bool)": {
        "details": "See {IERC721-setApprovalForAll}."
      },
      "supportsInterface(bytes4)": {
        "details": "See {IERC165-supportsInterface}."
      },
      "symbol()": {
        "details": "See {IERC721Metadata-symbol}."
      },
      "tokenURI(uint256)": {
        "details": "See {IERC721Metadata-tokenURI}."
      },
      "transferFrom(address,address,uint256)": {
        "details": "See {IERC721-transferFrom}."
      },
      "transferOwnership(address)": {
        "details": "Transfers ownership of the contract to a new account (`newOwner`). Can only be called by the current owner."
      }
    },
    "version": 1
  },
  "userdoc": {
    "kind": "user",
    "methods": {},
    "version": 1
  }
}