{
  "contractName": "SpaceshipAttack",
  "abi": [
    {
      "anonymous": false,
      "inputs": [
        {
          "indexed": false,
          "internalType": "uint256",
          "name": "shipId",
          "type": "uint256"
        },
        {
          "indexed": false,
          "internalType": "string",
          "name": "name",
          "type": "string"
        },
        {
          "indexed": false,
          "internalType": "uint256",
          "name": "dna",
          "type": "uint256"
        }
      ],
      "name": "NewSpaceship",
      "type": "event"
    },
    {
      "anonymous": false,
      "inputs": [
        {
          "indexed": true,
          "internalType": "address",
          "name": "previousOwner",
          "type": "address"
        },
        {
          "indexed": true,
          "internalType": "address",
          "name": "newOwner",
          "type": "address"
        }
      ],
      "name": "OwnershipTransferred",
      "type": "event"
    },
    {
      "inputs": [
        {
          "internalType": "uint256",
          "name": "",
          "type": "uint256"
        }
      ],
      "name": "SpaceshipToOwner",
      "outputs": [
        {
          "internalType": "address",
          "name": "",
          "type": "address"
        }
      ],
      "stateMutability": "view",
      "type": "function"
    },
    {
      "inputs": [
        {
          "internalType": "string",
          "name": "_name",
          "type": "string"
        }
      ],
      "name": "createRandomSpaceship",
      "outputs": [],
      "stateMutability": "nonpayable",
      "type": "function"
    },
    {
      "inputs": [],
      "name": "owner",
      "outputs": [
        {
          "internalType": "address",
          "name": "",
          "type": "address"
        }
      ],
      "stateMutability": "view",
      "type": "function"
    },
    {
      "inputs": [],
      "name": "renounceOwnership",
      "outputs": [],
      "stateMutability": "nonpayable",
      "type": "function"
    },
    {
      "inputs": [
        {
          "internalType": "uint256",
          "name": "",
          "type": "uint256"
        }
      ],
      "name": "spaceships",
      "outputs": [
        {
          "internalType": "string",
          "name": "name",
          "type": "string"
        },
        {
          "internalType": "uint256",
          "name": "dna",
          "type": "uint256"
        },
        {
          "internalType": "uint32",
          "name": "level",
          "type": "uint32"
        },
        {
          "internalType": "uint32",
          "name": "readyTime",
          "type": "uint32"
        },
        {
          "internalType": "uint16",
          "name": "winCount",
          "type": "uint16"
        },
        {
          "internalType": "uint16",
          "name": "lossCount",
          "type": "uint16"
        }
      ],
      "stateMutability": "view",
      "type": "function"
    },
    {
      "inputs": [
        {
          "internalType": "address",
          "name": "newOwner",
          "type": "address"
        }
      ],
      "name": "transferOwnership",
      "outputs": [],
      "stateMutability": "nonpayable",
      "type": "function"
    },
    {
      "inputs": [
        {
          "internalType": "uint256",
          "name": "_sourceId",
          "type": "uint256"
        },
        {
          "internalType": "uint256",
          "name": "_targetId",
          "type": "uint256"
        }
      ],
      "name": "attack",
      "outputs": [],
      "stateMutability": "nonpayable",
      "type": "function"
    }
  ],
  "bytecode": "0x60806040526010600155600154600a6200001a91906200017f565b600255620151806003553480156200003157600080fd5b5062000052620000466200005860201b60201c565b6200006060201b60201c565b62000302565b600033905090565b60008060009054906101000a900473ffffffffffffffffffffffffffffffffffffffff169050816000806101000a81548173ffffffffffffffffffffffffffffffffffffffff021916908373ffffffffffffffffffffffffffffffffffffffff1602179055508173ffffffffffffffffffffffffffffffffffffffff168173ffffffffffffffffffffffffffffffffffffffff167f8be0079c531659141344cd1fd0a4f28419497f9722a3daafe3b4186f6b6457e060405160405180910390a35050565b6000808291508390505b600185111562000176578086048111156200014e576200014d620002c6565b5b60018516156200015e5780820291505b80810290506200016e85620002f5565b94506200012e565b94509492505050565b60006200018c82620002bc565b91506200019983620002bc565b9250620001c87fffffffffffffffffffffffffffffffffffffffffffffffffffffffffffffffff8484620001d0565b905092915050565b600082620001e25760019050620002b5565b81620001f25760009050620002b5565b81600181146200020b576002811462000216576200024c565b6001915050620002b5565b60ff8411156200022b576200022a620002c6565b5b8360020a915084821115620002455762000244620002c6565b5b50620002b5565b5060208310610133831016604e8410600b8410161715620002865782820a90508381111562000280576200027f620002c6565b5b620002b5565b62000295848484600162000124565b92509050818404811115620002af57620002ae620002c6565b5b81810290505b9392505050565b6000819050919050565b7f4e487b7100000000000000000000000000000000000000000000000000000000600052601160045260246000fd5b60008160011c9050919050565b61116280620003126000396000f3fe608060405234801561001057600080fd5b506004361061007d5760003560e01c806395ca8acb1161005b57806395ca8acb146100c6578063d239f0ba146100fb578063e1fa76381461012b578063f2fde38b146101475761007d565b80635718dfc514610082578063715018a61461009e5780638da5cb5b146100a8575b600080fd5b61009c60048036038101906100979190610b16565b610163565b005b6100a66101e4565b005b6100b061026c565b6040516100bd9190610d1f565b60405180910390f35b6100e060048036038101906100db9190610b57565b610295565b6040516100f296959493929190610d3a565b60405180910390f35b61011560048036038101906101109190610b57565b6103a5565b6040516101229190610d1f565b60405180910390f35b61014560048036038101906101409190610b80565b6103d8565b005b610161600480360381019061015c9190610aed565b6104f5565b005b6000600660003373ffffffffffffffffffffffffffffffffffffffff1673ffffffffffffffffffffffffffffffffffffffff16815260200190815260200160002054146101af57600080fd5b60006101ba826105ed565b90506064816101c99190611000565b816101d49190610efe565b90506101e08282610632565b5050565b6101ec6108af565b73ffffffffffffffffffffffffffffffffffffffff1661020a61026c565b73ffffffffffffffffffffffffffffffffffffffff1614610260576040517f08c379a000000000000000000000000000000000000000000000000000000000815260040161025790610dc2565b60405180910390fd5b61026a60006108b7565b565b60008060009054906101000a900473ffffffffffffffffffffffffffffffffffffffff16905090565b600481815481106102a557600080fd5b90600052602060002090600302016000915090508060000180546102c890610fce565b80601f01602080910402602001604051908101604052809291908181526020018280546102f490610fce565b80156103415780601f1061031657610100808354040283529160200191610341565b820191906000526020600020905b81548152906001019060200180831161032457829003601f168201915b5050505050908060010154908060020160009054906101000a900463ffffffff16908060020160049054906101000a900463ffffffff16908060020160089054906101000a900461ffff169080600201600a9054906101000a900461ffff16905086565b60056020528060005260406000206000915054906101000a900473ffffffffffffffffffffffffffffffffffffffff1681565b816005600082815260200190815260200160002060009054906101000a900473ffffffffffffffffffffffffffffffffffffffff1673ffffffffffffffffffffffffffffffffffffffff163373ffffffffffffffffffffffffffffffffffffffff161461044457600080fd5b600060048481548110610480577f4e487b7100000000000000000000000000000000000000000000000000000000600052603260045260246000fd5b906000526020600020906003020190506104998161097b565b6104a257600080fd5b6000600484815481106104de577f4e487b7100000000000000000000000000000000000000000000000000000000600052603260045260246000fd5b906000526020600020906003020190505050505050565b6104fd6108af565b73ffffffffffffffffffffffffffffffffffffffff1661051b61026c565b73ffffffffffffffffffffffffffffffffffffffff1614610571576040517f08c379a000000000000000000000000000000000000000000000000000000000815260040161056890610dc2565b60405180910390fd5b600073ffffffffffffffffffffffffffffffffffffffff168173ffffffffffffffffffffffffffffffffffffffff1614156105e1576040517f08c379a00000000000000000000000000000000000000000000000000000000081526004016105d890610da2565b60405180910390fd5b6105ea816108b7565b50565b600080826040516020016106019190610d08565b6040516020818303038152906040528051906020012060001c90506002548161062a9190611000565b915050919050565b60006040518060c00160405280848152602001838152602001600163ffffffff168152602001600354426106669190610ea8565b63ffffffff168152602001600061ffff168152602001600061ffff168152509050600481908060018154018082558091505060019003906000526020600020906003020160009091909190915060008201518160000190805190602001906106cf9291906109b8565b506020820151816001015560408201518160020160006101000a81548163ffffffff021916908363ffffffff16021790555060608201518160020160046101000a81548163ffffffff021916908363ffffffff16021790555060808201518160020160086101000a81548161ffff021916908361ffff16021790555060a082015181600201600a6101000a81548161ffff021916908361ffff1602179055505050600060016004805490506107849190610efe565b9050336005600083815260200190815260200160002060006101000a81548173ffffffffffffffffffffffffffffffffffffffff021916908373ffffffffffffffffffffffffffffffffffffffff16021790555061082b6001600660003373ffffffffffffffffffffffffffffffffffffffff1673ffffffffffffffffffffffffffffffffffffffff168152602001908152602001600020546109a290919063ffffffff16565b600660003373ffffffffffffffffffffffffffffffffffffffff1673ffffffffffffffffffffffffffffffffffffffff168152602001908152602001600020819055507f87ff6545941f4a78bc68f4bdb31dee3ef94d3ab320ed4d7c4d29ccf0cd178fe18185856040516108a193929190610de2565b60405180910390a150505050565b600033905090565b60008060009054906101000a900473ffffffffffffffffffffffffffffffffffffffff169050816000806101000a81548173ffffffffffffffffffffffffffffffffffffffff021916908373ffffffffffffffffffffffffffffffffffffffff1602179055508173ffffffffffffffffffffffffffffffffffffffff168173ffffffffffffffffffffffffffffffffffffffff167f8be0079c531659141344cd1fd0a4f28419497f9722a3daafe3b4186f6b6457e060405160405180910390a35050565b6000428260020160049054906101000a900463ffffffff1663ffffffff1611159050919050565b600081836109b09190610ea8565b905092915050565b8280546109c490610fce565b90600052602060002090601f0160209004810192826109e65760008555610a2d565b82601f106109ff57805160ff1916838001178555610a2d565b82800160010185558215610a2d579182015b82811115610a2c578251825591602001919060010190610a11565b5b509050610a3a9190610a3e565b5090565b5b80821115610a57576000816000905550600101610a3f565b5090565b6000610a6e610a6984610e51565b610e20565b905082815260208101848484011115610a8657600080fd5b610a91848285610f8c565b509392505050565b600081359050610aa8816110fe565b92915050565b600082601f830112610abf57600080fd5b8135610acf848260208601610a5b565b91505092915050565b600081359050610ae781611115565b92915050565b600060208284031215610aff57600080fd5b6000610b0d84828501610a99565b91505092915050565b600060208284031215610b2857600080fd5b600082013567ffffffffffffffff811115610b4257600080fd5b610b4e84828501610aae565b91505092915050565b600060208284031215610b6957600080fd5b6000610b7784828501610ad8565b91505092915050565b60008060408385031215610b9357600080fd5b6000610ba185828601610ad8565b9250506020610bb285828601610ad8565b9150509250929050565b610bc581610f32565b82525050565b6000610bd682610e81565b610be08185610e8c565b9350610bf0818560208601610f9b565b610bf9816110ed565b840191505092915050565b6000610c0f82610e81565b610c198185610e9d565b9350610c29818560208601610f9b565b80840191505092915050565b6000610c42602683610e8c565b91507f4f776e61626c653a206e6577206f776e657220697320746865207a65726f206160008301527f64647265737300000000000000000000000000000000000000000000000000006020830152604082019050919050565b6000610ca8602083610e8c565b91507f4f776e61626c653a2063616c6c6572206973206e6f7420746865206f776e65726000830152602082019050919050565b610ce481610f44565b82525050565b610cf381610f72565b82525050565b610d0281610f7c565b82525050565b6000610d148284610c04565b915081905092915050565b6000602082019050610d346000830184610bbc565b92915050565b600060c0820190508181036000830152610d548189610bcb565b9050610d636020830188610cea565b610d706040830187610cf9565b610d7d6060830186610cf9565b610d8a6080830185610cdb565b610d9760a0830184610cdb565b979650505050505050565b60006020820190508181036000830152610dbb81610c35565b9050919050565b60006020820190508181036000830152610ddb81610c9b565b9050919050565b6000606082019050610df76000830186610cea565b8181036020830152610e098185610bcb565b9050610e186040830184610cea565b949350505050565b6000604051905081810181811067ffffffffffffffff82111715610e4757610e466110be565b5b8060405250919050565b600067ffffffffffffffff821115610e6c57610e6b6110be565b5b601f19601f8301169050602081019050919050565b600081519050919050565b600082825260208201905092915050565b600081905092915050565b6000610eb382610f72565b9150610ebe83610f72565b9250827fffffffffffffffffffffffffffffffffffffffffffffffffffffffffffffffff03821115610ef357610ef2611031565b5b828201905092915050565b6000610f0982610f72565b9150610f1483610f72565b925082821015610f2757610f26611031565b5b828203905092915050565b6000610f3d82610f52565b9050919050565b600061ffff82169050919050565b600073ffffffffffffffffffffffffffffffffffffffff82169050919050565b6000819050919050565b600063ffffffff82169050919050565b82818337600083830152505050565b60005b83811015610fb9578082015181840152602081019050610f9e565b83811115610fc8576000848401525b50505050565b60006002820490506001821680610fe657607f821691505b60208210811415610ffa57610ff961108f565b5b50919050565b600061100b82610f72565b915061101683610f72565b92508261102657611025611060565b5b828206905092915050565b7f4e487b7100000000000000000000000000000000000000000000000000000000600052601160045260246000fd5b7f4e487b7100000000000000000000000000000000000000000000000000000000600052601260045260246000fd5b7f4e487b7100000000000000000000000000000000000000000000000000000000600052602260045260246000fd5b7f4e487b7100000000000000000000000000000000000000000000000000000000600052604160045260246000fd5b6000601f19601f8301169050919050565b61110781610f32565b811461111257600080fd5b50565b61111e81610f72565b811461112957600080fd5b5056fea26469706673582212200a09f718dfe274be403fb7f9b15b37047648c44183280ae35f2e2bfa9d0c360764736f6c63430008000033",
  "immutableReferences": {},
  "source": "/*\nThis class handles the attack logic of spaceships.\nA spaceship can attack another spaceship.\nAfter battle, there are 3 possible outcomes:\n    1. Attacker loses\n    2. Defender loses\n    3. Attacker withdraws\n*/\n\npragma solidity ^0.8.0;\n\nimport \"./spaceshipfactory.sol\";\n\ncontract SpaceshipAttack is SpaceshipFactory{\n\n    modifier onlyOwnerOf(uint _zombieId) {\n        require(msg.sender == SpaceshipToOwner[_zombieId]);\n        _;\n    }\n\n    function _isReady(Spaceship storage _spaceship) internal view returns (bool){\n        return (_spaceship.readyTime <= block.timestamp);\n    }\n\n    function _cooldown(Spaceship storage _spaceship) internal{\n        _spaceship.readyTime = uint32(block.timestamp + cooldownTime);\n    }\n    \n    function attack(uint _sourceId, uint _targetId) external onlyOwnerOf(_sourceId){\n        Spaceship storage mySpaceship = spaceships[_sourceId];\n        require(_isReady(mySpaceship));\n\n        Spaceship storage enemySpaceship = spaceships[_targetId];\n\n        // TODO: battle logic\n    }\n\n}",
  "sourcePath": "/home/rage/Documents/cryptoSpaceships/contracts/spaceship_attack.sol",
  "compiler": {
    "name": "solc",
    "version": "0.8.0+commit.c7dfd78e.Emscripten.clang"
  },
  "schemaVersion": "3.4.3",
  "updatedAt": "2021-09-07T12:38:26.303Z",
  "devdoc": {
    "kind": "dev",
    "methods": {
      "owner()": {
        "details": "Returns the address of the current owner."
      },
      "renounceOwnership()": {
        "details": "Leaves the contract without owner. It will not be possible to call `onlyOwner` functions anymore. Can only be called by the current owner. NOTE: Renouncing ownership will leave the contract without an owner, thereby removing any functionality that is only available to the owner."
      },
      "transferOwnership(address)": {
        "details": "Transfers ownership of the contract to a new account (`newOwner`). Can only be called by the current owner."
      }
    },
    "version": 1
  },
  "userdoc": {
    "kind": "user",
    "methods": {},
    "version": 1
  }
}