{
  "contractName": "SpaceshipFactory",
  "abi": [
    {
      "anonymous": false,
      "inputs": [
        {
          "indexed": false,
          "internalType": "uint256",
          "name": "shipId",
          "type": "uint256"
        },
        {
          "indexed": false,
          "internalType": "string",
          "name": "name",
          "type": "string"
        },
        {
          "indexed": false,
          "internalType": "uint256",
          "name": "dna",
          "type": "uint256"
        }
      ],
      "name": "NewSpaceship",
      "type": "event"
    },
    {
      "anonymous": false,
      "inputs": [
        {
          "indexed": true,
          "internalType": "address",
          "name": "previousOwner",
          "type": "address"
        },
        {
          "indexed": true,
          "internalType": "address",
          "name": "newOwner",
          "type": "address"
        }
      ],
      "name": "OwnershipTransferred",
      "type": "event"
    },
    {
      "inputs": [
        {
          "internalType": "uint256",
          "name": "",
          "type": "uint256"
        }
      ],
      "name": "SpaceshipToOwner",
      "outputs": [
        {
          "internalType": "address",
          "name": "",
          "type": "address"
        }
      ],
      "stateMutability": "view",
      "type": "function"
    },
    {
      "inputs": [],
      "name": "owner",
      "outputs": [
        {
          "internalType": "address",
          "name": "",
          "type": "address"
        }
      ],
      "stateMutability": "view",
      "type": "function"
    },
    {
      "inputs": [],
      "name": "renounceOwnership",
      "outputs": [],
      "stateMutability": "nonpayable",
      "type": "function"
    },
    {
      "inputs": [
        {
          "internalType": "uint256",
          "name": "",
          "type": "uint256"
        }
      ],
      "name": "spaceships",
      "outputs": [
        {
          "internalType": "string",
          "name": "name",
          "type": "string"
        },
        {
          "internalType": "uint256",
          "name": "dna",
          "type": "uint256"
        },
        {
          "internalType": "uint32",
          "name": "level",
          "type": "uint32"
        },
        {
          "internalType": "uint32",
          "name": "readyTime",
          "type": "uint32"
        },
        {
          "internalType": "uint16",
          "name": "winCount",
          "type": "uint16"
        },
        {
          "internalType": "uint16",
          "name": "lossCount",
          "type": "uint16"
        }
      ],
      "stateMutability": "view",
      "type": "function"
    },
    {
      "inputs": [
        {
          "internalType": "address",
          "name": "newOwner",
          "type": "address"
        }
      ],
      "name": "transferOwnership",
      "outputs": [],
      "stateMutability": "nonpayable",
      "type": "function"
    },
    {
      "inputs": [
        {
          "internalType": "string",
          "name": "_name",
          "type": "string"
        }
      ],
      "name": "createRandomSpaceship",
      "outputs": [],
      "stateMutability": "nonpayable",
      "type": "function"
    }
  ],
  "bytecode": "0x60806040526010600155600154600a6200001a91906200017f565b600255620151806003553480156200003157600080fd5b5062000052620000466200005860201b60201c565b6200006060201b60201c565b62000302565b600033905090565b60008060009054906101000a900473ffffffffffffffffffffffffffffffffffffffff169050816000806101000a81548173ffffffffffffffffffffffffffffffffffffffff021916908373ffffffffffffffffffffffffffffffffffffffff1602179055508173ffffffffffffffffffffffffffffffffffffffff168173ffffffffffffffffffffffffffffffffffffffff167f8be0079c531659141344cd1fd0a4f28419497f9722a3daafe3b4186f6b6457e060405160405180910390a35050565b6000808291508390505b600185111562000176578086048111156200014e576200014d620002c6565b5b60018516156200015e5780820291505b80810290506200016e85620002f5565b94506200012e565b94509492505050565b60006200018c82620002bc565b91506200019983620002bc565b9250620001c87fffffffffffffffffffffffffffffffffffffffffffffffffffffffffffffffff8484620001d0565b905092915050565b600082620001e25760019050620002b5565b81620001f25760009050620002b5565b81600181146200020b576002811462000216576200024c565b6001915050620002b5565b60ff8411156200022b576200022a620002c6565b5b8360020a915084821115620002455762000244620002c6565b5b50620002b5565b5060208310610133831016604e8410600b8410161715620002865782820a90508381111562000280576200027f620002c6565b5b620002b5565b62000295848484600162000124565b92509050818404811115620002af57620002ae620002c6565b5b81810290505b9392505050565b6000819050919050565b7f4e487b7100000000000000000000000000000000000000000000000000000000600052601160045260246000fd5b60008160011c9050919050565b610fab80620003126000396000f3fe608060405234801561001057600080fd5b50600436106100625760003560e01c80635718dfc514610067578063715018a6146100835780638da5cb5b1461008d57806395ca8acb146100ab578063d239f0ba146100e0578063f2fde38b14610110575b600080fd5b610081600480360381019061007c919061099b565b61012c565b005b61008b6101ad565b005b610095610235565b6040516100a29190610b68565b60405180910390f35b6100c560048036038101906100c091906109dc565b61025e565b6040516100d796959493929190610b83565b60405180910390f35b6100fa60048036038101906100f591906109dc565b61036e565b6040516101079190610b68565b60405180910390f35b61012a60048036038101906101259190610972565b6103a1565b005b6000600660003373ffffffffffffffffffffffffffffffffffffffff1673ffffffffffffffffffffffffffffffffffffffff168152602001908152602001600020541461017857600080fd5b600061018382610499565b90506064816101929190610e49565b8161019d9190610d47565b90506101a982826104de565b5050565b6101b561075b565b73ffffffffffffffffffffffffffffffffffffffff166101d3610235565b73ffffffffffffffffffffffffffffffffffffffff1614610229576040517f08c379a000000000000000000000000000000000000000000000000000000000815260040161022090610c0b565b60405180910390fd5b6102336000610763565b565b60008060009054906101000a900473ffffffffffffffffffffffffffffffffffffffff16905090565b6004818154811061026e57600080fd5b906000526020600020906003020160009150905080600001805461029190610e17565b80601f01602080910402602001604051908101604052809291908181526020018280546102bd90610e17565b801561030a5780601f106102df5761010080835404028352916020019161030a565b820191906000526020600020905b8154815290600101906020018083116102ed57829003601f168201915b5050505050908060010154908060020160009054906101000a900463ffffffff16908060020160049054906101000a900463ffffffff16908060020160089054906101000a900461ffff169080600201600a9054906101000a900461ffff16905086565b60056020528060005260406000206000915054906101000a900473ffffffffffffffffffffffffffffffffffffffff1681565b6103a961075b565b73ffffffffffffffffffffffffffffffffffffffff166103c7610235565b73ffffffffffffffffffffffffffffffffffffffff161461041d576040517f08c379a000000000000000000000000000000000000000000000000000000000815260040161041490610c0b565b60405180910390fd5b600073ffffffffffffffffffffffffffffffffffffffff168173ffffffffffffffffffffffffffffffffffffffff16141561048d576040517f08c379a000000000000000000000000000000000000000000000000000000000815260040161048490610beb565b60405180910390fd5b61049681610763565b50565b600080826040516020016104ad9190610b51565b6040516020818303038152906040528051906020012060001c9050600254816104d69190610e49565b915050919050565b60006040518060c00160405280848152602001838152602001600163ffffffff168152602001600354426105129190610cf1565b63ffffffff168152602001600061ffff168152602001600061ffff1681525090506004819080600181540180825580915050600190039060005260206000209060030201600090919091909150600082015181600001908051906020019061057b92919061083d565b506020820151816001015560408201518160020160006101000a81548163ffffffff021916908363ffffffff16021790555060608201518160020160046101000a81548163ffffffff021916908363ffffffff16021790555060808201518160020160086101000a81548161ffff021916908361ffff16021790555060a082015181600201600a6101000a81548161ffff021916908361ffff1602179055505050600060016004805490506106309190610d47565b9050336005600083815260200190815260200160002060006101000a81548173ffffffffffffffffffffffffffffffffffffffff021916908373ffffffffffffffffffffffffffffffffffffffff1602179055506106d76001600660003373ffffffffffffffffffffffffffffffffffffffff1673ffffffffffffffffffffffffffffffffffffffff1681526020019081526020016000205461082790919063ffffffff16565b600660003373ffffffffffffffffffffffffffffffffffffffff1673ffffffffffffffffffffffffffffffffffffffff168152602001908152602001600020819055507f87ff6545941f4a78bc68f4bdb31dee3ef94d3ab320ed4d7c4d29ccf0cd178fe181858560405161074d93929190610c2b565b60405180910390a150505050565b600033905090565b60008060009054906101000a900473ffffffffffffffffffffffffffffffffffffffff169050816000806101000a81548173ffffffffffffffffffffffffffffffffffffffff021916908373ffffffffffffffffffffffffffffffffffffffff1602179055508173ffffffffffffffffffffffffffffffffffffffff168173ffffffffffffffffffffffffffffffffffffffff167f8be0079c531659141344cd1fd0a4f28419497f9722a3daafe3b4186f6b6457e060405160405180910390a35050565b600081836108359190610cf1565b905092915050565b82805461084990610e17565b90600052602060002090601f01602090048101928261086b57600085556108b2565b82601f1061088457805160ff19168380011785556108b2565b828001600101855582156108b2579182015b828111156108b1578251825591602001919060010190610896565b5b5090506108bf91906108c3565b5090565b5b808211156108dc5760008160009055506001016108c4565b5090565b60006108f36108ee84610c9a565b610c69565b90508281526020810184848401111561090b57600080fd5b610916848285610dd5565b509392505050565b60008135905061092d81610f47565b92915050565b600082601f83011261094457600080fd5b81356109548482602086016108e0565b91505092915050565b60008135905061096c81610f5e565b92915050565b60006020828403121561098457600080fd5b60006109928482850161091e565b91505092915050565b6000602082840312156109ad57600080fd5b600082013567ffffffffffffffff8111156109c757600080fd5b6109d384828501610933565b91505092915050565b6000602082840312156109ee57600080fd5b60006109fc8482850161095d565b91505092915050565b610a0e81610d7b565b82525050565b6000610a1f82610cca565b610a298185610cd5565b9350610a39818560208601610de4565b610a4281610f36565b840191505092915050565b6000610a5882610cca565b610a628185610ce6565b9350610a72818560208601610de4565b80840191505092915050565b6000610a8b602683610cd5565b91507f4f776e61626c653a206e6577206f776e657220697320746865207a65726f206160008301527f64647265737300000000000000000000000000000000000000000000000000006020830152604082019050919050565b6000610af1602083610cd5565b91507f4f776e61626c653a2063616c6c6572206973206e6f7420746865206f776e65726000830152602082019050919050565b610b2d81610d8d565b82525050565b610b3c81610dbb565b82525050565b610b4b81610dc5565b82525050565b6000610b5d8284610a4d565b915081905092915050565b6000602082019050610b7d6000830184610a05565b92915050565b600060c0820190508181036000830152610b9d8189610a14565b9050610bac6020830188610b33565b610bb96040830187610b42565b610bc66060830186610b42565b610bd36080830185610b24565b610be060a0830184610b24565b979650505050505050565b60006020820190508181036000830152610c0481610a7e565b9050919050565b60006020820190508181036000830152610c2481610ae4565b9050919050565b6000606082019050610c406000830186610b33565b8181036020830152610c528185610a14565b9050610c616040830184610b33565b949350505050565b6000604051905081810181811067ffffffffffffffff82111715610c9057610c8f610f07565b5b8060405250919050565b600067ffffffffffffffff821115610cb557610cb4610f07565b5b601f19601f8301169050602081019050919050565b600081519050919050565b600082825260208201905092915050565b600081905092915050565b6000610cfc82610dbb565b9150610d0783610dbb565b9250827fffffffffffffffffffffffffffffffffffffffffffffffffffffffffffffffff03821115610d3c57610d3b610e7a565b5b828201905092915050565b6000610d5282610dbb565b9150610d5d83610dbb565b925082821015610d7057610d6f610e7a565b5b828203905092915050565b6000610d8682610d9b565b9050919050565b600061ffff82169050919050565b600073ffffffffffffffffffffffffffffffffffffffff82169050919050565b6000819050919050565b600063ffffffff82169050919050565b82818337600083830152505050565b60005b83811015610e02578082015181840152602081019050610de7565b83811115610e11576000848401525b50505050565b60006002820490506001821680610e2f57607f821691505b60208210811415610e4357610e42610ed8565b5b50919050565b6000610e5482610dbb565b9150610e5f83610dbb565b925082610e6f57610e6e610ea9565b5b828206905092915050565b7f4e487b7100000000000000000000000000000000000000000000000000000000600052601160045260246000fd5b7f4e487b7100000000000000000000000000000000000000000000000000000000600052601260045260246000fd5b7f4e487b7100000000000000000000000000000000000000000000000000000000600052602260045260246000fd5b7f4e487b7100000000000000000000000000000000000000000000000000000000600052604160045260246000fd5b6000601f19601f8301169050919050565b610f5081610d7b565b8114610f5b57600080fd5b50565b610f6781610dbb565b8114610f7257600080fd5b5056fea264697066735822122029c5ab8c974e3cfc440b357c95aab61e22929931674c5a1e175d31d1e090396964736f6c63430008000033",
  "immutableReferences": {},
  "source": "/*\nA spaceship factory class. It handles the creation of new spaceships and monitoring of existing ones \n*/\npragma solidity ^0.8.0;\n\nimport \"@openzeppelin/contracts/access/Ownable.sol\";\nimport \"@openzeppelin/contracts/utils/math/SafeMath.sol\"; // use safemath to prevent underflow and overflow numerical errors.\n\ncontract SpaceshipFactory is Ownable {\n\n  using SafeMath for uint256;\n  // using SafeMath32 for uint32;\n  // using SafeMath16 for uint16;\n\n  event NewSpaceship(uint shipId, string name, uint dna);\n\n  uint dnaDigits = 16;\n  uint dnaModulus = 10 ** dnaDigits;\n  uint cooldownTime = 1 days; // the cooldown for each spaceship to perform any action\n\n  struct Spaceship {\n    string name;\n    uint dna;\n    uint32 level;\n    uint32 readyTime;\n    uint16 winCount;\n    uint16 lossCount;\n  }\n\n  Spaceship[] public spaceships;\n\n  mapping (uint => address) public SpaceshipToOwner;\n  mapping (address => uint) ownerSpaceshipCount;\n\n  function _createSpaceship(string memory _name, uint _dna) internal {\n    Spaceship memory newSpaceship = Spaceship(_name, _dna, 1, uint32(block.timestamp + cooldownTime), 0, 0);\n    spaceships.push(newSpaceship);\n    uint id = spaceships.length - 1;\n    SpaceshipToOwner[id] = msg.sender;\n    ownerSpaceshipCount[msg.sender] = ownerSpaceshipCount[msg.sender].add(1);\n    emit NewSpaceship(id, _name, _dna);\n  }\n\n  function _generateRandomDna(string memory _str) private view returns (uint) {\n    uint rand = uint(keccak256(abi.encodePacked(_str)));\n    return rand % dnaModulus;\n  }\n\n  function createRandomSpaceship(string memory _name) public {\n    require(ownerSpaceshipCount[msg.sender] == 0);\n    uint randDna = _generateRandomDna(_name);\n    randDna = randDna - randDna % 100;\n    _createSpaceship(_name, randDna);\n  }\n\n}\n",
  "sourcePath": "/home/rage/Documents/cryptoSpaceships/contracts/spaceshipfactory.sol",
  "compiler": {
    "name": "solc",
    "version": "0.8.0+commit.c7dfd78e.Emscripten.clang"
  },
  "schemaVersion": "3.4.3",
  "updatedAt": "2021-09-07T12:38:26.306Z",
  "devdoc": {
    "kind": "dev",
    "methods": {
      "owner()": {
        "details": "Returns the address of the current owner."
      },
      "renounceOwnership()": {
        "details": "Leaves the contract without owner. It will not be possible to call `onlyOwner` functions anymore. Can only be called by the current owner. NOTE: Renouncing ownership will leave the contract without an owner, thereby removing any functionality that is only available to the owner."
      },
      "transferOwnership(address)": {
        "details": "Transfers ownership of the contract to a new account (`newOwner`). Can only be called by the current owner."
      }
    },
    "version": 1
  },
  "userdoc": {
    "kind": "user",
    "methods": {},
    "version": 1
  }
}